:020000040800F2
:10000000000A0020C5010008B5030008B10300087C
:1000100000000000000000000000000000000000E0
:10002000000000000000000000000000D1010008F6
:100030000000000000000000D3010008B903000820
:10004000D7010008D7010008D7010008D701000830
:10005000D7010008D7010008D7010008D701000820
:100060000000000071030008D7010008D701000854
:10007000D7010008D7010008D701000800000000E0
:10008000D7010008D701000800000000D7010008D0
:10009000D7010008D7010008D7010008D7010008E0
:1000A000D7010008D7010008D7010008D7010008D0
:1000B00075040008000000000000000000000000BF
:1000C000D701000800000000D701000800F002F886
:1000D00000F04CF812A030C8083824182D18AC4293
:1000E00001D100F043F80FCCA246AB460CA730CFAD
:1000F0002D1B083F3F197C427F1E54442D090426C6
:10010000F441641EAC4201D300F030F801263342C2
:1001100000D0FB1A3343984754465D46DFE70000A2
:100120005024000070240000103A02D378C878C12F
:10013000FAD8520701D330C830C101D504680C6029
:1001400070470000704700000023002400250026AF
:10015000103A01D378C1FBD8520700D330C100D583
:100160000B6070471FB51FBD10B510BD00F0CCF877
:100170001146FFF7F7FF01F0E5FF00F0E4F803B4E4
:10018000FFF7F2FF03BC00F0EBF8000070B5054686
:100190000C46164602E00FCC0FC5103E102EFAD2C8
:1001A000082E02D303CC03C5083E042E07D301CC8E
:1001B00001C5361F03E021782970641C6D1C761E72
:1001C000F9D270BD0748804707480047FEE7FEE7C1
:1001D000FEE7FEE7FEE7FEE704480549054A064B51
:1001E00070470000C9030008CD000008000200208D
:1001F000000A0020000600200006002030B5441C44
:1002000003E00178401C00290DD08107F9D10B4B88
:10021000DD0104C8D11A91432940FAD0001B0A0617
:1002200003D0C01E30BD001B30BD0A0401D0801EAB
:1002300030BD0902FCD0401E30BD000001010101AB
:10024000F8B5042A2CD3830712D00B78491C03700D
:10025000401C521E83070BD00B78491C0370401CB6
:10026000521E830704D00B78491C0370401C521E99
:100270008B079B0F05D0C91ADF002023DE1B08C99E
:100280000AE0FFF783FFF8BD1D4608C9FD401C4684
:10029000B4402C4310C0121F042AF5D2F308C91A27
:1002A000521EF0D40B78491C0370401C521EEAD435
:1002B0000B78491C0370401C012AE4D409780170B2
:1002C000F8BD01E004C0091F0429FBD28B0701D54A
:1002D0000280801CC90700D00270704700290BD033
:1002E000C30702D00270401C491E022904D38307B1
:1002F00002D50280801C891EE3E70022EEE700227F
:10030000DFE7704770477047754600F025F8AE4646
:10031000050069465346C008C000854618B020B5A0
:10032000FFF75AFF60BCB64600260027C0C5C0C50F
:10033000C0C5C0C5C0C5C0C5C0C5C0C5403D4908D1
:1003400049008D46704710B50446C046C046204659
:10035000FFF715FF10BD0000004870475000002057
:1003600001491820ABBEFEE72600020070470000DE
:100370000A4801680A4801600068800748B1FFE741
:100380000849086802229043086007490120087064
:10039000FFE70649012008607047C04600000240A0
:1003A00064010020002401405001002004000240AC
:1003B000FFE7FEE77047000002490868401C08603C
:1003C0007047C046C801002080B582B02049086847
:1003D000012210430860FFE71D48006880070028DD
:1003E00001D4FFE7F8E71B4908681B4A1040086082
:1003F00008681A4A1040086015490868184A1040F1
:100400000860184908680F22904308601649086878
:1004100040F203129043086008680122009213041E
:10042000984308600868D307984308600F49086834
:10043000904308600E4900200190086001F018FF09
:1004400000980199C00601F093FE02B080BDC0463D
:1004500000100240041002400C00FF08FFFFC277AA
:10046000FFFFF2FE2C100240301002403410024018
:100470000810024018480168184801600068C00769
:1004800040B1FFE7164A1168012001431160154988
:100490000870FFE7114800688006002817D5FFE7BD
:1004A000114801681148026811480378D154007856
:1004B00010490978884205DAFFE70D490878401CA1
:1004C000087003E00A4900200870FFE7FFE70449CD
:1004D0004F2008607047C0461C440040F4010020D3
:1004E00020440040F201002024440040DC010020B0
:1004F000DA010020E001002081B001466846017069
:100500000021405600280DD4FFE7002168464156DF
:100510001F200A46024001209040490989000E4AE6
:100520008850FFE701B0704781B00146684601700E
:100530000021405600280DD4FFE7002168464156AF
:100540001F200A4602400120904049098900024AC2
:100550008850FFE701B0704780E200E081B00146BB
:10056000684601700021405600280DD4FFE70021A5
:10057000684641561F200A46024001209040490922
:1005800089001A4A8850FFE701B0704781B00146E0
:10059000684601700021405600280DD4FFE7002175
:1005A000684641561F200A460240012090404909F2
:1005B00089000E4A8850FFE701B0704781B00146BC
:1005C000684601700021405600280DD4FFE7002145
:1005D000684641561F200A460240012090404909C2
:1005E0008900024A8850FFE701B0704700E100E04F
:1005F00070B582B0024601A80270009100214056F9
:10060000002816D4FFE7002401A908570322D3438A
:100610001840554A805809578C07E50EFF24AC4016
:10062000A043009CA401E4B2AC4020431940885090
:100630001AE001A908780F24204008380322D34388
:100640001840484A8058002549578D07EE0EFF256F
:10065000B540A843009DAD01EDB2B540284321400F
:10066000083919408850FFE702B070BD70B582B0FC
:10067000024601A80270009100214056002816D4BD
:10068000FFE7002401A908570322D3431840364A44
:10069000805809578C07E50EFF24AC40A043009C0E
:1006A000A401E4B2AC402043194088501AE001A9EB
:1006B00008780F24204008380322D3431840294AE1
:1006C0008058002549578D07EE0EFF25B540A843F9
:1006D000009DAD01EDB2B5402843214008391940D5
:1006E0008850FFE702B070BD70B582B0024601A825
:1006F0000270009100214056002816D4FFE7002424
:1007000001A908570322D3431840174A80580957B4
:100710008C07E50EFF24AC40A043009CA401E4B28A
:10072000AC402043194088501AE001A908780F24F2
:10073000204008380322D34318400A4A8058002535
:1007400049578D07EE0EFF25B540A843009DAD012A
:10075000EDB2B54028432140083919408850FFE7E1
:1007600002B070BD1CED00E000E400E080B584B094
:100770000390039808B9FFE76BE0039836490860D7
:100780005F49086840F20022104308603349086856
:10079000104308603249086840F2001210430860B4
:1007A000032000052F4908602F4908682F4A10438D
:1007B00008602F4908684922D203104308602D4978
:1007C00008682D4A10430860086801221043086039
:1007D00000200290FFE702982849884205D8FFE7E9
:1007E000FFE70298401C0290F5E7224908680822BA
:1007F00010430860FFE71F4800680007002801D584
:10080000FFE7F8E71B490868042210430860FFE788
:10081000184800684007002801D5FFE7F8E71849A5
:10082000184808600C4818490860184A03201060EE
:1008300017490868174B18430860106801210843DE
:10084000106009200190FFF7D3FE0198FFF786FEA4
:10085000FFE704B080BDC0464C01002018100240E4
:10086000042401402C24014034240140C51C000014
:10087000102401400824014000011E003F420F00E7
:10088000100002404C240140140002400C000240C1
:1008900008000240A235000010B51949086803227B
:1008A0005304184308600920C106086840F2FC336D
:1008B000984308600868134B184308601249086899
:1008C000FC2318430860114B186840F200142043C1
:1008D00018600F4B18680224A04318600D4B18686D
:1008E00041F20014204318600B4B186890431860C5
:1008F000186801242043186008681043086010BD80
:1009000014100240A4FC0000080000480C0000483D
:1009100014000048200000480004004880B500F0A2
:1009200081F8054840F2E83101F0A6FCFFF7B4FF7A
:100930000248FFF71BFF80BD00A24A0452010020BD
:1009400080B582B001F00EFC1B490968401A652889
:1009500030D3FFE701F006FC17490860174800781C
:10096000019020B1FFE70198012811D021E001F0AA
:10097000E5FA1349086801225040086001F024F8A4
:10098000022804D1FFE70D4901200870FFE710E0BD
:1009900001F05EFA0A49086801221043086001F07C
:1009A00013F8022804D0FFE7044900200870FFE78D
:1009B000FFE7FFE702B080BDC00100205801002022
:1009C0001404004880B501F0CDFB06490968401ABF
:1009D000152805D3FFE701F0C5FB02490860FFE7D2
:1009E00080BDC0464401002080B582B00C4800782C
:1009F000019020B1FFE70198012806D00CE000F03B
:100A000045F807490120087007E000F04DF8FFF7AE
:100A1000D9FFFFF795FFFFE7FFE702B080BDC046B3
:100A20005A0100201649086801225305184308603E
:100A300014490868120610430860FFE7114800686F
:100A40008001002801D4FFE7F8E70D490868022279
:100A500010430860FFE70A4800680007002801D437
:100A6000FFE7F8E708490868012210430860FFE73C
:100A7000054800688007002801D4FFE7F8E77047C1
:100A800004100240001002403410024080B50348B8
:100A90000349044A012301F0A3F880BD00000020AF
:100AA000240000204201002080B501F00DF980BD36
:100AB00080B582B0EA4800780190032800D9DFE0D1
:100AC00001998A0001A080188746C04600F006B848
:100AD00000F005B800F0C4B800F0D1B8D0E0DF48AD
:100AE0000078000900900B2800D9B1E000998A0035
:100AF00001A080188746C04600F016B800F018B86C
:100B000000F035B800F056B800F0A2B800F0A0B878
:100B100000F09EB800F09CB800F09AB800F072B8EF
:100B200000F07BB800F086B8CD490020087093E053
:100B3000CA4800780F21084001280AD1FFE7C648BB
:100B40004278C6494A7080788870504903200870FE
:100B500007E0C1484078C14988704C4902200870BC
:100B6000FFE74949002008704649087074E0BB4817
:100B700000780F21084001280CD1FFE7B6484278E1
:100B8000B6494A7082788A70C07808713F4904205B
:100B9000087009E0B0484278B0498A7080780871DE
:100BA0003A4903200870FFE73749002008703549AB
:100BB000087051E0A94800780F21084001280ED1A3
:100BC000FFE7A5484278A5494A70C2788A708278C2
:100BD000CA70007908712D49052008700BE09E4805
:100BE00082789E498A704278CA70C0780871274915
:100BF00004200870FFE724490120087021490020E3
:100C0000087029E094484078944988701E49002073
:100C100008701C49012008701EE08F4842788F49F7
:100C20008A708078087118490020087015490120E1
:100C3000087011E08848427888498A708278CA70C2
:100C4000C07808711049012008700E49087003E04F
:100C500083490020087013E08149022008700FE0EA
:100C600008480078012803D1FFE700F025FB02E0E7
:100C700000F068FEFFE77A490320087000E0FFE714
:100C800002B080BDB1000020B0000020B300002001
:100C900080B582B0014601A8017000780F2817DCEA
:100CA000FFE7E9480278511C0170E849895CB74ABE
:100CB00091700078E6490978884208D1FFE7E24957
:100CC00000200870E2490870E2490870FFE7FFE77A
:100CD00001A80078103800900F2846D800998A00A3
:100CE00001A080188746C04600F01EB800F02EB85C
:100CF00000F03AB800F039B800F037B800F035B875
:100D000000F033B800F031B800F02FB800F02DB883
:100D100000F02BB800F029B800F027B800F025B893
:100D200000F023B800F018B8CA480078022804DCA4
:100D3000FFE796490120887007E0C448007893498E
:100D40008870C14901200870FFE70FE08F4900203B
:100D50008870C049087009E0BB4900200870BC4990
:100D60000870BC49087001E0FFE7FFE787480021F1
:100D7000C170801C01F012F9022001F057F802B096
:100D800080BDC04680B582B001A90870C248006825
:100D900009781F221140405C7C4988700020C8708F
:100DA000022001F043F802B080BDC04680B582B099
:100DB000014601A8017000780F2824DCFFE7734882
:100DC0008078E1490A78E1498854E14800780F21A8
:100DD0000840012805D1FFE7DC484078DD4908706C
:100DE000FFE7D9490878401C0870DA48007809788C
:100DF000884207D1FFE7D84901200870D249002076
:100E00000870FFE7FFE701A80078102818D1FFE776
:100E10005E488178CD4801700178CD480170007836
:100E20000F210840012807D0FFE7C94800780F21AB
:100E30000840C8490870FFE7C3490120087000E076
:100E4000FFE752480021C170C01C01F0A7F8012043
:100E500000F0ECFF02B080BDB50000206901002069
:100E60006001002010B582B0014601A80170007831
:100E7000009020B1FFE70098012805D009E0434821
:100E80008078CD49087005E040488078C9490870ED
:100E900000E0FFE73D488178C84A126801AB1B7843
:100EA0001F242340D1540021C170C01C01F076F8EA
:100EB000012000F0BBFF02B010BDC04610B584B0E9
:100EC00003A90020087002A9087001A908706946EA
:100ED00008702E480078C00958B1FFE72B48827887
:100EE00052214A4003A90A70C27803985040087002
:100EF00006E02648C0785221484003A90870FFE761
:100F00000399EC48017001788B080A465A400B0996
:100F10005A4089094A4001210A4001AB1A700378FE
:100F20005A08DC0862405C0962400A40DB095A400A
:100F300002AB1A70027853081046584008409108D6
:100F4000D3085940C907890F40181109530959405E
:100F5000C907490F40185106C90FD2095140C900AD
:100F600040186946087002984001019A1201104326
:100F700009780F22114042180449C8783F231A40CB
:100F8000C02318408018C87004B010BD6E01002046
:100F900080B582B0014601A8017000780F2815DCE9
:100FA000FFE769480278511C01702849895CC04AF2
:100FB0009170007867490978884206D1FFE7624955
:100FC0000020087064490870FFE7FFE701A8007877
:100FD0000090102809D0FFE700981138022816D396
:100FE000FFE700981F281AD021E05B48007802280C
:100FF00004DCFFE7AE490120887007E01348007861
:10100000AB498870504901200870FFE710E0A849FB
:1010100000208870104908604F49087008E04A496C
:10102000002008704B4908704B49087000E0FFE74A
:101030009F4800214171801C00F0B0FF042000F0A7
:10104000F5FE02B080BDC046B4000020FB000020C9
:10105000B200002060010020E401002080B582B0D1
:10106000014601A8017000780F280ADCFFE7534809
:10107000006801A909780F221140405C8C498870F2
:10108000FFE78B4800214171801C00F087FF04209E
:1010900000F0CCFE02B080BD5C01002080B582B0C3
:1010A000014601A8017000780F2824DCFFE7804882
:1010B000807825490A7825498854254800780F21E9
:1010C0000840012805D1FFE72048407821490870F1
:1010D000FFE71D490878401C08701E480078097811
:1010E000884207D1FFE71C490120087016490020FB
:1010F0000870FFE7FFE701A80078102818D1FFE784
:101100006B488178114801700178114801700078AE
:101110000F210840012807D0FFE70D4800780F2174
:1011200008400C490870FFE707490120087000E0FB
:10113000FFE75F4800214171C01C00F02FFF032032
:1011400000F074FE02B080BDB4000020B5000020A5
:1011500069010020B20000206001002010B582B0BB
:10116000014601A801700078009020B1FFE70098C7
:10117000012805D009E04E4880780F49087005E045
:101180004B4880780B49087000E011E048488178AE
:101190000A4A126801AB1B780F242340D154002166
:1011A0004171C01C00F0FAFE032000F03FFEFFE793
:1011B00002B010BDC5010020C40100205C01002068
:1011C00010B584B003A90020087002A9087001A915
:1011D00008706946087036480078C00998B1FFE782
:1011E0003348827852214A4003A90A70C378039A8F
:1011F0005A400A700379039A5A400A704279039858
:10120000504008700EE02A48C27852214A4003A993
:101210000A700379039A5A400A7042790398504041
:101220000870FFE703992348017001788B080A468C
:101230005A400B095A4089094A4001210A4001AB32
:101240001A7003785A08DC0862405C0962400A4060
:10125000DB095A4002AB1A70027853081046584016
:1012600008409108D3085940C907890F401811094F
:1012700053095940C907490F40185106C90FD209EF
:101280005140C90040186946087002984001019A0F
:101290001201104309780F2211404218044948797D
:1012A0003F231A40C02318408018487104B010BD75
:1012B000720100206801002080B5A4B023A900209D
:1012C0000880F6480078012808D1FFE7F4498878BB
:1012D0000002C978401823A9088004E0F04880780B
:1012E00023A90880FFE7EF4821904321FFF705F885
:1012F0002199D020087023A800881038229018283F
:1013000000D915E322998A0001A080188746C046BB
:1013100000F030B800F086B800F0DCB800F032B968
:1013200000F088B900F0E9B900F03FBA00F095BAD2
:1013300000F0FEBA00F0FCBA00F0FABA00F0F8BA19
:1013400000F0F6BA00F0F4BA00F0F2BA00F0F0BA29
:1013500000F0EEBA00F0ECBA00F0EABA00F0E8BA39
:1013600000F0E6BA00F0E4BA00F0E2BA00F0E0BA49
:1013700000F0CBBACC48006802784178090289189D
:1013800082781204C078000680184018FEF736FFF5
:101390000146C648017000780F281EDCFFE7C248EE
:1013A0000068027841780902891882781204C078AE
:1013B000000680184118BD4820900278B9481F9057
:1013C000401CFEF73DFF1F9920980278921C027086
:1013D00002780878104308701FE0B348006802786C
:1013E00041780902891882781204C07800068018B2
:1013F0004118AE481E900278AA481D90801CFEF746
:101400001FFF1D991E980278D21C02700A780123D2
:101410001A430A7000784870FFE7A448007800F08B
:10142000C1FC86E2A0480068027941790902891866
:1014300082791204C079000680184018FEF7DEFE9B
:1014400001469A48017000780F281EDCFFE7964895
:101450000068027941790902891882791204C079F9
:1014600000068018411891481C9002788D481B9006
:10147000401CFEF7E5FE1B991C980278921C027036
:1014800002780878104308701FE0874800680279E6
:1014900041790902891882791204C07900068018FE
:1014A000411882481A9002787E481990801CFEF7F5
:1014B000C7FE19991A980278D21C02700A78012383
:1014C0001A430A7000784870FFE77848007800F007
:1014D00069FC2EE274480068027A417A0902891890
:1014E000827A1204C07A000680184018FEF786FE41
:1014F00001466E48017000780F281EDCFFE76A483D
:101500000068027A417A09028918827A1204C07A44
:1015100000068018411865481890027861481790B5
:10152000401CFEF78DFE179918980278921C0270E5
:1015300002780878104308701FE05B480068027A60
:10154000417A09028918827A1204C07A000680184A
:101550004118FA4816900278F7481590801CFEF75B
:101560006FFE159916980278D21C02700A78012332
:101570001A430A7000784870FFE7F048007800F0DE
:1015800011FCD6E1EE480068027B417B0902891814
:10159000827B1204C07B000680184018FEF72EFEE6
:1015A0000146E648017000780F281EDCFFE7E4489A
:1015B0000068027B417B09028918827B1204C07B90
:1015C000000680184118FB4814900278FA481390DE
:1015D000401CFEF735FE139914980278921C027095
:1015E00002780878104308701FE0D5480068027B35
:1015F000417B09028918827B1204C07B0006801897
:101600004118EC4812900278EB481190801CFEF7CC
:1016100017FE119912980278D21C02700A780123E1
:101620001A430A7000784870FFE7E248007800F03B
:10163000B9FB7EE1C2480068027C417C090289183E
:10164000827C1204C07C000680184018FEF7D6FD8C
:101650000146D848017000780F2829DCFFE7B84818
:101660000068027C417C09028918827C1204C07CDB
:10167000000680184118CF4810900278CE480F908D
:10168000401CFEF7DDFD0F9910980278921C027045
:1016900002780878104308702AE0C046B0000020A5
:1016A00069010020FB00002078010020B20000202A
:1016B000A3480068027C417C09028918827C1204DC
:1016C000C07C000680184118BA480E900278BA48CB
:1016D0000D90801CFEF7B4FD0D990E980278D21C77
:1016E00002700A7801231A430A7000784870FFE7F5
:1016F000B048007800F056FB1BE191480068027D7D
:10170000417D09028918827D1204C07D000680187F
:101710004018FEF773FD0146A648017000780F28B7
:101720001EDCFFE786480068027D417D09028918BA
:10173000827D1204C07D0006801841189D480C90DF
:1017400002789D480B90401CFEF77AFD0B990C988F
:101750000278921C027002780878104308701FE02B
:1017600077480068027D417D09028918827D120454
:10177000C07D0006801841188E480A9002788E4875
:101780000990801CFEF75CFD09990A980278D21C2A
:1017900002700A7801231A430A7000784870FFE744
:1017A0008448007800F0FEFAC3E065480068027ED5
:1017B000417E09028918827E1204C07E00068018CC
:1017C0004018FEF71BFD01467A48017000780F288B
:1017D0001EDCFFE75A480068027E417E0902891834
:1017E000827E1204C07E000680184118714808905D
:1017F000027871480790401CFEF722FD079908986F
:101800000278921C027002780878104308701FE07A
:101810004B480068027E417E09028918827E1204CC
:10182000C07E00068018411862480690027862481F
:101830000590801CFEF704FD059906980278D21CDD
:1018400002700A7801231A430A7000784870FFE793
:101850005848007800F0A6FA6BE0EF480068027F75
:10186000417F09028918827F1204C07F0006801818
:101870004018FEF7C3FC01464E48017000780F285F
:101880001EDCFFE7E4480068027F417F09028918F7
:10189000827F1204C07F00068018411845480490DA
:1018A000027845480390401CFEF7CAFC039904984F
:1018B0000278921C027002780878104308701FE0CA
:1018C000D5480068027F417F09028918827F12048F
:1018D000C07F0006801841183648029002783648CA
:1018E0000190801CFEF7ACFC019902980278D21C92
:1018F00002700A7801231A430A7000784870FFE7E3
:101900002C48007800F04EFA13E02A4804210170B8
:101910000378294A117819431170C0490B685B7824
:101920005370096809789170007800F03BFA00E084
:10193000FFE724B080BDC046FB000020B2000020BD
:101940007801002081B0694600200880174800789F
:10195000012808D1FFE7164988780002C9784018A5
:101960006946088004E01248807869460880FFE7ED
:1019700010490220087010495220087068460088FB
:10198000022809D1FFE70D490A780D48805C0D4A0D
:10199000107000200870FFE70749002048700878A1
:1019A0004A785040487001B07047C046B0000020EF
:1019B00069010020B2000020FB000020B3000020DD
:1019C000B5000020E1010020F04800787047C046D3
:1019D00080B582B0F24840788009022801D0FFE744
:1019E00056E0EF480078C009F8B1FFE7EC4800780E
:1019F0004006800F0190012804D0FFE701980328DA
:101A000007D00DE0E64800781F210840FFF726FBCD
:101A10000AE0E34800781F210840FFF7B9FA03E025
:101A2000DE4900200870FFE71EE0DD480078400630
:101A3000800F0090012804D0FFE70098032807D00A
:101A40000DE0D74800781F210840FFF787FB0AE028
:101A5000D34800781F210840FFF720FB03E0CF495F
:101A600000200870FFE7FFE70A48007801280CD142
:101A7000FFE7084900200870684801680A78C849EB
:101A80000A7100684078C870FFE7FFF799FBFFE72D
:101A900002B080BD4801002080B582B0BA484078CD
:101AA000800908B1FFE747E0B7480078C00900B3F4
:101AB000FFE7B54800784006800F019040B1FFE78E
:101AC0000198012805D0FFE70198032808D00EE00F
:101AD0000EE0AD4800781F210840FFF753F907E0FA
:101AE000A94800781F210840FFF7D2F800E0FFE77F
:101AF0001FE0A54800784006800F009040B1FFE746
:101B00000098012805D0FFE70098032808D00EE0D0
:101B10000EE09D4800781F210840FFF7A3F907E079
:101B2000994800781F210840FFF740F900E0FFE7DF
:101B3000FFE7FFF7C3F9FFE702B080BD80B582B0D1
:101B400091484078800908B1FFE747E08E48007867
:101B5000C00900B3FFE78C4800784006800F019071
:101B600040B1FFE70198012805D0FFE7019803285D
:101B700008D00EE00EE0844800781F210840FFF7EF
:101B800001F907E0804800781F210840FFF780F83E
:101B900000E0FFE71FE07C4800784006800F0090DF
:101BA00040B1FFE70098012805D0FFE7009803281F
:101BB00008D00EE00EE0744800781F210840FFF7BF
:101BC00051F907E0704800781F210840FFF7EEF850
:101BD00000E0FFE7FFE7FFF771F9FFE702B080BD24
:101BE00010B584B003900291019268460370664874
:101BF000811C00F04DF903980649086002980649D7
:101C0000086001980549086000980549087004B00B
:101C100010BDC0465C01002078010020CC010020EE
:101C20004101002080B582B058480078019040B151
:101C3000FFE70198012807D0FFE70198022806D0A6
:101C400008E0FFF77BFF05E0FFF726FF02E0FFF764
:101C5000BFFEFFE702B080BD80B582B04C4800787F
:101C600001905A280CD0FFE70198972808D0FFE789
:101C7000019899280ED0FFE701989A2814D01DE00A
:101C800000F042F94048811C00F07AF93F490020F9
:101C9000087014E000F042F94148811C00F070F92E
:101CA0003A49022008700AE000F02EF93648811CFB
:101CB00000F066F935490120087000E0FFE734497B
:101CC0000020087002B080BD80B584B02C48016847
:101CD000491C016000682B49884215D1FFE728495B
:101CE00000200390086000F00FF92748811C00F0E5
:101CF00047F9039825490870254A9721117025490D
:101D0000087025490870FFE724480078029020B148
:101D1000FFE7029801280DD02DE000F0CBF800F08D
:101D200071F808B9FFE726E01C4901200870FFF7A9
:101D300079FF20E000F0D0F800F084F8D0B1FFE7A0
:101D4000FFF78AFF114800780190022804D3FFE7CB
:101D50000198022805D009E00B48801C00F01EF90C
:101D600004E00F48801C00F019F9FFE70B49002040
:101D70000870FFE7FFE7FEF79BFE04B080BDC0469A
:101D8000E401002057FA08006E01002062010020E3
:101D9000C401002060010020B40000206101002087
:101DA0007201002083B002A9088001AB00201870E6
:101DB0006A4610801248007818700098401C108005
:101DC0000298401E0880FFE702AA1088411E118079
:101DD00060B1FFE769460A880948825C0198504073
:101DE00001AA10700098401C0880EDE70198694630
:101DF0000988034A8918491E087003B07047C04615
:101E0000FB00002081B03348007820B9FFE7694625
:101E10000020087006E02F49002008706946012064
:101E20000870FFE76846007801B0704781B06946E6
:101E3000087000983349087031490120087001B0DA
:101E40007047C0462E480078414248417047C0461E
:101E50004A48007809280DDBFFE748480178491E09
:101E600001700078102804D1FFE744490020087071
:101E7000FFE70CE041480178491C01700078082810
:101E800004D1FFE73D4918200870FFE7FFE77047DE
:101E900080B582B00190009101983F490860009898
:101EA00042490860012000F083F800F02DF802B0EC
:101EB00080BDC04680B53848006800F08BF8054901
:101EC000087000F083F820B1FFE702490020087095
:101ED000FFE780BDD101002080B50948007868B1D6
:101EE000FFE7084800783149096800F0EDF820B9AB
:101EF000FFE7034900200870FFE7FFE780BDC04609
:101F0000FD010020D001002080B5022001221146F1
:101F100000F0C8F808490020087080BD80B582B084
:101F2000022001900122114600F0BCF801980249FC
:101F3000087002B080BDC0465B0100200F480078E9
:101F400009280DDBFFE70D480178491E0170007874
:101F5000102804D1FFE7094900200870FFE70CE0D2
:101F600006480178491C01700078082804D1FFE771
:101F7000024918200870FFE7FFE770475901002069
:101F800082B00190009101980349086000980749C8
:101F9000086002B07047C046D401002081B00090B4
:101FA00000980249086001B07047C046F80100205F
:101FB00080B582B0014601A801700078384A604BB4
:101FC000202100F0BDF902B080BDC04680B500F010
:101FD0009DF980BD80B584B002902F4800780190B3
:101FE000032850D801998A0001A080188746C0466E
:101FF00000F006B800F01CB800F022B800F02AB8D3
:1020000000F09AF9022812DBFFE725480078000665
:10201000002804D5FFE720490120087003E01E498D
:1020200002200870FFE71D4900200870FFE72AE042
:10203000244800781949087017490320087022E0E5
:10204000204908784978401814490870124903203B
:10205000087018E000F070F910490978884211D131
:10206000FFE702980D4900910A780D49FEF7E8F85C
:1020700000F032FA0098084A00211170007803A994
:10208000087004E0FFE703A900200870FFE703A839
:10209000007804B080BDC046D8010020D9010020DE
:1020A0007F01002083B002AB187001A80170684660
:1020B000027002980349087001984870009888706F
:1020C00003B070477C01002080B586B005AA10706F
:1020D000049103A90020087018480078029020B1EC
:1020E000FFE70298012818D024E005A8007801280D
:1020F00012DBFFE705A80190007800F0F3F90198E2
:10210000049902780E48FEF79BF8059803A9087019
:102110000A4901200870FFE70CE000F07DF9014654
:1021200003A80170007820B9FFE704490020087077
:10213000FFE7FFE703A8007806B080BDFC010020A0
:102140009F01002080B582B000200190FEF7E6FBE1
:10215000034800688047FFE7FEF746FCFCE7C046FF
:1021600044000020014800687047C046C8010020B4
:1021700082B00190009101980099034A11400843F0
:102180000249086002B0704780FFFF1F08ED00E0C1
:1021900084B00020039002903149086801221204A3
:1021A00010430860FFE70398401C03902C48006828
:1021B0000121490408400290FFE7029900200190A4
:1021C00041B9FFE7039840F60001401A411E8841DB
:1021D0000190FFE70198C0070028E4D1FFE72048FD
:1021E00000688003002802D4FFE7FFE7FEE71D49EF
:1021F0000868022210430522904308601A490091A2
:102200000868086008680860086808600868174A75
:102210001040086008681D2212041043086010492D
:1022200008680122120610430860FFE70C480068A6
:102230008001002801D4FFE7F8E70B490868032272
:10224000904308600868022210430860FFE70648D0
:1022500000680007002801D4FFE7F8E704B07047E2
:10226000001002400020024004100240FFFFC2772D
:1022700080B5FFF78DFF80BD80B584B003900291DB
:1022800003980299B0FBF1F0401E0D4908600D481B
:10229000002101600C4A1068062318431060106882
:1022A000012318431060C8430190FEF7DFF901983D
:1022B000FEF722F90198FEF769F904B080BDC04627
:1022C00014E000E018E000E010E000E0704781B0AA
:1022D0006946087001B070470B49086802229043B4
:1022E0000860464908680422104308607047C046E9
:1022F00042490868042290430860034908680222A2
:10230000104308607047C0461400004881B0094877
:10231000007820B9FFE769460020087006E005490B
:1023200000200870694601200870FFE768460078C1
:1023300001B07047F2010020694800787047C0463C
:1023400010B586B0044605A8047004AC2170039251
:102350000293294A116801235B0419431160274A3B
:102360001168274B19431160264A116848F200038F
:10237000194311600078019040B1FFE701980128EE
:102380000AD0FFE7019802280DD013E01E49086823
:102390001E4A1043086014E01B49086840F6C0124A
:1023A000104308600DE01849086840F2A01210437D
:1023B000086006E01449086840F6C012104308603F
:1023C000FFE70498124908700398124908600298C0
:1023D000504908601C2000900321FEF785F9009801
:1023E000FEF7A2F80098FEF7E9F804490868012210
:1023F0001043086006B010BD1C10024000440040AD
:102400002C950000044400400C440040204E000085
:10241000E0010020DC01002080B582B03E48007859
:10242000019003284DD801998A0001A080188746A1
:1024300000F006B800F013B800F01CB800F028B89F
:1024400036480078012809DBFFE7214900200870A1
:10245000FFF74EFF304901200870FFE731E01B48CD
:1024600000680006002804D5FFE72B490220087009
:10247000FFE726E02748006815490A78805C154A7E
:1024800010600878401C087023490320087018E089
:102490000E4800684006002812D5FFE71F48017863
:1024A000491E0170007830B9FFE7FFF715FF1A49A0
:1024B0000020087003E0184902200870FFE7FFE7DA
:1024C000FFE71648007802B080BDC0461C440040BB
:1024D000E8010020284400400149002008707047AE
:1024E000DA01002081B0694608700A48006808B91E
:1024F000FFE70DE06846007808B9FFE708E0064806
:10250000007808B1FFE703E0009804490870FFE78E
:1025100001B07047EC010020F1010020F001002023
:10252000494F4C696E6B7946303432004630343254
:102530005F36333632003132333441424344004B4C
:102540004D49544C00546865204D61737465722088
:102550006F6620496E6E69766174696F6E005469AA
:102560006E4C65746861780031304C696E6B79002F
:1025700090250008000000205000000028010008FD
:10258000E025000850000020B009000048010008C4
:1025900000002801111000FFFF1234560000000057
:1025A000000102030405060708090A0B0C0D0E0FB3
:1025B000100000003F2500084525000820250008E0
:1025C000682500085E250008362500082C2500082F
:1025D00027250008CD220008CF22000800000000B7
:04000005080000CD22
:00000001FF
