:020000040800F2
:10000000E0070020B90100080D0500080B050008F5
:1000100000000000000000000000000000000000E0
:10002000000000000000000000000000E3010008E4
:100030000000000000000000E501000811050008B4
:10004000E9010008E9010008E9010008E9010008E8
:10005000E9010008E9010008E9010008E9010008D8
:10006000E9010008E9010008E9010008E9010008C8
:10007000E9010008E9010008E9010008E9010008B8
:10008000E90100080000000000000000E90100088C
:1000900000000000E9010008E9010008E90100088A
:1000A00000000000E9010008E9010008E90100087A
:1000B0002505000800000000E9010008E90100082A
:1000C00000F002F800F04CF812A030C808382418EC
:1000D0002D18AC4201D100F043F80FCCA246AB463C
:1000E0000CA730CF2D1B083F3F197C427F1E544484
:1000F0002D090426F441641EAC4201D300F030F80F
:100100000126334200D0FB1A3343984754465D46DC
:10011000DFE70000E815000008160000103A02D3DF
:1001200078C878C1FAD8520701D330C830C101D598
:1001300004680C6070470000704700000023002432
:1001400000250026103A01D378C1FBD8520700D30E
:1001500030C100D50B6070471FB51FBD10B510BD75
:1001600000F0A1F91146FFF7F7FF01F0AFF900F039
:10017000B9F903B4FFF7F2FF03BC00F0BFF90000C8
:1001800070B505460C46164602E00FCC0FC5103E72
:10019000102EFAD2082E02D303CC03C5083E042E3B
:1001A00007D301CC01C5361F03E021782970641CF8
:1001B0006D1C761EF9D270BD0F4880F308880F4879
:1001C0000168090E0E4A914205D10E480E490160A0
:1001D0000E480F4901600F4880470F480047FEE76F
:1001E000FEE7FEE7FEE7FEE7FEE700000B480C49EE
:1001F0000C4A0D4B70470000E0070020040000008F
:100200001F00000018100240010000000000014023
:100210000000000021050008C1000008E0010020E6
:10022000E0070020E0030020E003002030B5441C7C
:1002300003E00178401C00290DD08107F9D10B4B58
:10024000DD0104C8D11A91432940FAD0001B0A06E7
:1002500003D0C01E30BD001B30BD0A0401D0801E7B
:1002600030BD0902FCD0401E30BD0000010101017B
:10027000F8B5042A2CD3830712D00B78491C0370DD
:10028000401C521E83070BD00B78491C0370401C86
:10029000521E830704D00B78491C0370401C521E69
:1002A0008B079B0F05D0C91ADF002023DE1B08C96E
:1002B0000AE0FFF765FFF8BD1D4608C9FD401C4672
:1002C000B4402C4310C0121F042AF5D2F308C91AF7
:1002D000521EF0D40B78491C0370401C521EEAD405
:1002E0000B78491C0370401C012AE4D40978017082
:1002F000F8BD01E004C0091F0429FBD28B0701D51A
:100300000280801CC90700D00270704700290BD002
:10031000C30702D00270401C491E022904D3830780
:1003200002D50280801C891EE3E70022EEE700224E
:10033000DFE70000002203098B422CD3030A8B4223
:1003400011D300239C464EE003460B433CD40022CD
:1003500043088B4231D303098B421CD3030A8B42DF
:1003600001D394463FE0C3098B4201D3CB01C01AAD
:10037000524183098B4201D38B01C01A5241430978
:100380008B4201D34B01C01A524103098B4201D366
:100390000B01C01A5241C3088B4201D3CB00C01AD3
:1003A000524183088B4201D38B00C01A524143084B
:1003B0008B4201D34B00C01A5241411A00D2014670
:1003C0005241104670475DE0CA0F00D04942031009
:1003D00000D3404253409C46002203098B422DD358
:1003E000030A8B4212D38901FC2212BA030A8B4200
:1003F0000CD3890192118B4208D3890192118B424F
:1004000004D389013AD0921100E08909C3098B42D3
:1004100001D3CB01C01A524183098B4201D38B0116
:10042000C01A524143098B4201D34B01C01A5241B9
:1004300003098B4201D30B01C01A5241C3088B42FE
:1004400001D3CB00C01A524183088B4201D38B00E9
:10045000C01A5241D9D243088B4201D34B00C01A73
:100460005241411A00D201465241104663465B1088
:1004700001D34042002B00D54942704763465B10D0
:1004800000D3404201B50549002802DC491C084060
:1004900000E00846C046C04602BD00BFFFFFFF7F28
:1004A000704770477047754600F024F8AE46050067
:1004B00069465346C008C000854618B020B5FFF70E
:1004C00095FE60BCB64600260027C0C5C0C5C0C5A5
:1004D000C0C5C0C5C0C5C0C5C0C5403D490849006C
:1004E0008D46704710B50446C046C0462046FFF70B
:1004F00040FE10BD00487047400000200149182010
:10050000ABBEFEE7260002007047FEE77047000022
:1005100002480168491C01607047C046A8010020DC
:100520007047000010B51148011F0A6810490A60A1
:100530000A68D20705D0026801231A4302600D4AF7
:100540001370096889060ED50B490A6883880B4920
:100550000C7813550A4A13780A789A4201D300227C
:1005600000E0521C0A700749016010BD20440040A1
:10057000D4010020D2010020BC010020BA010020DB
:10058000C00100205F1B120010B503204004184971
:100590000A6802430A600920C0060168154A0A4039
:1005A00002600121090302680A43A0231343036088
:1005B000426840231A43426082680F4C14438460AF
:1005C000C2680A43C260416999434161112109022D
:1005D000026A0A430262094801680C2291430160E1
:1005E000016804230B43036081681143816010BDDF
:1005F0001410024000C3FFFFF03000000004004868
:1006000080B500F063F87D20C100034800F06AFF68
:10061000FFF7BAFF80BDC046006CDC0210B500F0E9
:100620005BFF144C2168401A652822D300F054FF68
:100630002060114C207801280ED0002819D100F03C
:10064000A5FE0E48016802224A40026000F0C8FC84
:1006500002280ED101200BE000F038FE07480168A7
:1006600002220A43026000F0BBFC022801D00020F5
:10067000207010BDA00100203C010020140400489F
:1006800010B5104C2078012806D0002818D100F0B1
:1006900031F80120207010BD00F038F800F01CFF88
:1006A000094C2168401A652808D300F015FF206026
:1006B00000F096FC022801D100F02CF8FFF7AEFF05
:1006C00010BDC0463E01002034010020012001047D
:1006D0000748026B0A430263016B8903FCD501687A
:1006E00003220A43026001680907890FFBD07047A3
:1006F0000410024080B5034803490C4A012300F06E
:1007000003FD80BD000000202000002080B500F027
:1007100051FD80BD80B504480188491C034A118001
:10072000018000F0B7FD80BD3A01002032010020B9
:1007300070B5D74C207802281ED0012800D08EE05A
:100740008A480278130900210B2B00D986E0C046A5
:100750007B441B795B009F4480052F3A8181818116
:100760008155464C0F210A407F49012A50D14A78D1
:100770004270891C03224DE03A480078012803D1D9
:1007800000F040FA032169E0C04805210170774973
:100790008878354A1278012A02D1C97800024018B7
:1007A000032102285AD12E48027800230370E04822
:1007B000805C2E4A107051E00F210A40DC4B012A68
:1007C0002DD159784170D91C9A1C04232AE00F219D
:1007D0000A40D74B012A2ED159784170191D9A1C15
:1007E000DB1C05252BE0D2494A788270897801719B
:1007F0000BE0CF494A7882708A78C270C97801715B
:10080000012016E0CA49497881700121002020E0CA
:10081000491C0222124B1A700978817008E0991C59
:100820005A1C03230E4D2B701278827009780171C7
:10083000002001460DE0D91C5A1C9B1C0425084EC3
:1008400035701B7883701278C270097801710021AD
:100850000120044A1170044908700221217070BD02
:10086000A3000020A1000020A0000020C101002062
:1008700010B50F2811D8B1490A78531C0B70834C5E
:10088000A25CDF4CA270AC4A1478DBB2A34204D164
:10089000002313700B70AA490B701F280AD011286F
:1008A00010D010281BD1A6480078022810D8D448B0
:1008B00001210BE0A04800210170A0480170A04870
:1008C00001700CE09E4800210170CD48817006E067
:1008D0009A48012101706D480078C9498870C8485C
:1008E0000021C170801C00F06DFD022000F0E2FCD0
:1008F00010BDC04610B50F280FD890480178C04AE7
:1009000093788B4A53548B4B1B780F241C40012C3B
:1009100013D15278884B1A7011E010281AD1B848B8
:10092000807883490870834908700F2101400120B5
:1009300001290DD0804A11700AE07F4A1278491CC3
:100940000170C8B2824205D17D48012101700020AA
:100950007A490870AA480021C170C01C00F032FD1D
:10096000012000F0A7FC10BDA500002048010020D8
:1009700080B5012805D0002813D1A14989787F4A84
:1009800002E09F4989787C4A11707D4A12681154AF
:100990009B480021C170C01C00F014FD012000F034
:1009A00089FC80BDF0B5002195484156CA11817877
:1009B0001140C478614052234B40904A13705A084A
:1009C0004A4001251540CE08CAB292085640F607A3
:1009D000B60FC0272740F41964194D09DEB2330958
:1009E0005D40ED076D0F6419CD09B6097540ED073F
:1009F0002D0F6419514071405940C907890E611883
:100A0000C170F0BD10B50F2810D84C490A78531C9E
:100A10000B701E4CA25C784CA270474A1278DBB275
:100A2000934203D1464A002313700B7001461139DB
:100A300002290BD31F280FD0102814D1404800786A
:100A400002281AD86C48012181700CE0114800215D
:100A500001606948817004E037480021017037481F
:100A6000017037480170644800214171801C00F01A
:100A7000A9FC042000F01EFC10BD304801210170CB
:100A8000024800785C498870EDE7C046EB00002022
:100A900044010020C401002080B50F2804D8384943
:100AA0000968085C54498870534800214171801CD2
:100AB00000F088FC042000F0FDFB80BD10B50F287D
:100AC0000FD81E4801784C4A9378194A5354194B51
:100AD0001B780F241C40012C13D15278164B1A702E
:100AE00011E010281AD14448807811490870114942
:100AF00008700F210140012001290DD00E4A11700C
:100B00000AE00D4A1278491C0170C8B2824205D130
:100B10000B48012101700020084908703648002167
:100B20004171C01C00F04EFC032000F0C3FB10BD5F
:100B3000A500002048010020A2000020A400002001
:100B40004401002080B5012805D0002813D12A498E
:100B500089780A4A02E028498978074A1170084AC8
:100B600012681154244800214171C01C00F02AFC75
:100B7000032000F09FFB80BDA5010020A401002000
:100B800040010020F0B500211B484456C27803798B
:100B9000002C194601DA81785140002C00DA1A46FF
:100BA0005140407948405223434014490B70590842
:100BB000414001240C40C108C2B292085140C9070B
:100BC0008D0F0F49CE78C0273740ED192C194509F4
:100BD000DEB233095D40ED076D0F6419C509B60932
:100BE0007540ED072D0F6419504070405840C00704
:100BF000800E2018C870F0BD510100204701002070
:100C00004D010020F0B581B0EF480778EF48C1787A
:100C100000918578EE4E741C42212046FFF785FB3B
:100C2000D02031463070012F02D12802009A851859
:100C30000F462846103807282BD840007844808873
:100C40004000874407003E005D007C009B00BA0026
:100C5000FA00D900E1480068017842781202511880
:100C600082781204C0780006801845182846FFF7DD
:100C7000DDFA0446D74E3070C2B20F2A00D9FBE02D
:100C8000781C2946FFF7F4FA2F20C043A11C084323
:100C9000F9E0282D00D095E1D4203870CD49042208
:100CA0000A70CD4909684A787A700978B970791C58
:100CB00003220B785840491C521E1304F9D1F870D6
:100CC00080E1C648006801794279120251188279A0
:100CD0001204C0790006801845182846FFF7A6FAC6
:100CE0000446BC4E3070C2B20F2A00D9D9E0781C3D
:100CF0002946FFF7BDFA2F20C043A11C0843D7E0C7
:100D0000B6480068017A427A12025118827A1204B7
:100D1000C07A0006801845182846FFF787FA04466F
:100D2000AC4E3070C2B20F2A00D9CFE0781C2946F1
:100D3000FFF79EFA2F20C043A11C0843CDE0A7482F
:100D40000068017B427B12025118827B1204C07B37
:100D50000006801845182846FFF768FA04469D4E9D
:100D60003070C2B20F2A00D9C4E0781C2946FFF7C0
:100D70007FFA2F20C043A11C0843C2E0EC48006862
:100D8000017C427C12025118827C1204C07C000655
:100D9000801845182846FFF749FA04468D4E3070F2
:100DA000C2B20F2A00D9B9E0781C2946FFF760FAD1
:100DB0002F20C043A11C0843B7E0DD480068017D37
:100DC000427D12025118827D1204C07D00068018F7
:100DD00045182846FFF72AFA04467E4E3070C2B204
:100DE0000F2A00D9AEE0781C2946FFF741FA2F20E0
:100DF000C043A11C0843ACE0CD480068017F427F9E
:100E000012025118827F1204C07F00068018461813
:100E10003046FFF70BFA05466E4B1870C2B20F2A28
:100E200000D9A3E0781C31461E46FFF721FA32466E
:100E30002F20C043A91C0843A1E0BD480068017EE3
:100E4000427E12025118827E1204C07E0006801873
:100E500045182846FFF7EAF904465E4E3070C2B2E4
:100E60000F2A00D997E0781C2946FFF701FA2F20B6
:100E7000C043A11C084395E0B81C2946FFF7F8F9C8
:100E8000E11C7970D12038703170C9B24A1E00D18E
:100E900096E07B1C1C7860405B1C521E1404F9D148
:100EA0008CE0B81C2946FFF7E3F9E11C7970D120EA
:100EB00038703170C9B24A1E00D181E07B1C1C78A9
:100EC00060405B1C521E1404F9D177E0B81C29461F
:100ED000FFF7CEF9E11C7970D12038703170C9B2BA
:100EE0004A1E6DD07B1C1C7860405B1C521E140493
:100EF000F9D163E0B81C2946FFF7BAF9E11C797013
:100F0000D12038703170C9B24A1E59D07B1C1C7870
:100F100060405B1C521E1404F9D14FE0B81C2946F6
:100F2000FFF7A6F9E11C7970D12038703170C9B291
:100F30004A1E45D07B1C1C7860405B1C521E14046A
:100F4000F9D13BE0B81C2946FFF792F9E11C797012
:100F5000D12038703170C9B24A1E31D07B1C1C7848
:100F600060405B1C521E1404F9D127E0B81C3146C6
:100F70001E46FFF77DF93246E91C7970D1203870A2
:100F80001170C9B24A1E1BD023785840641C521EEF
:100F90001304F9D112E0B81C2946FFF769F9E11CE6
:100FA0007970D12038703170C9B24A1E08D07B1CCC
:100FB0001C7860405B1C521E1404F9D1491E00E0ED
:100FC0000021785401B0F0BDA000002048010020AD
:100FD000EB000020A2000020AC01002058010020FE
:100FE000A34800787047C04680B5A9484178C02220
:100FF0000A40802A27D10078410940B2002808D44D
:10100000032915D001290FD11F210840FFF79AFDB0
:1010100017E00322114003290FD0012904D11F2119
:101020000840FFF739FD0CE094480021017008E00A
:101030001F210840FFF742FD03E01F210840FFF792
:10104000E1FCFFF79FFD80BD80B587490878420924
:1010500040B2002808D4032A1AD0012A21D11F2126
:101060000840FFF785FC1CE003231A40032A14D034
:10107000012A16D11F2210400F2803D82D4A1268CA
:10108000105C88700020C870022000F013F908E09E
:101090001F210840FFF72EFC03E01F210840FFF747
:1010A000E7FBFFF77FFC80BD80B56F4908784209F8
:1010B00040B2002808D4032A1AD0012A21D11F21C6
:1010C0000840FFF755FC1CE003231A40032A14D004
:1010D000012A16D11F2210400F2803D8154A126882
:1010E000105C88700020C870022000F0E3F808E06F
:1010F0001F210840FFF7FEFB03E01F210840FFF718
:10110000B7FBFFF74FFC80BDF0B581B01C4615461C
:101110000E4607465448811C00F0EAF80448066071
:1011200004480760594805600348047001B0F0BDE9
:1011300058010020400100203101002080B54C48BA
:101140000078022806D0012807D0002804D1FFF734
:10115000ABFF80BDFFF748FF80BDFFF775FF80BD87
:1011600010B5424C207898280BDC5A2801D09728DB
:101170001CD100F0F5F83C48811C00F01BF9002060
:1011800012E0992809D09A2810D100F0E9F83648E1
:10119000811C00F00FF9012006E000F0EBF83C485C
:1011A000811C00F007F902203149087000202070EE
:1011B00010BDC046B0B52A480168491C0160294AE3
:1011C000914210D10024046000F0CAF82648811C26
:1011D00000F0F0F825489721017025480470254853
:1011E000047025480470254C207802280ED0012870
:1011F00020D0002831D100F08DF800F051F80028FF
:101200002BD001202070FFF799FF26E000F092F824
:1012100000F056F8002820D0FFF7A2FF0025144860
:101220004057022804D8800015A1085800F0CAF8D9
:10123000257012E00E48007802280CD1174801787A
:10124000012908D100210170104800680178104A76
:1012500011714078D07002202070FFF769FAB0BD9C
:10126000C401002057FA06004D010020A40100200F
:101270004601002044010020A40000204501002078
:101280004F0100204F01002053010020AC0100203D
:1012900051010020014801210170704738010020F0
:1012A00023480178002903D00021017001207047F4
:1012B00000207047284901220A70284908707047A9
:1012C00025480178484248417047C046384801786F
:1012D000092905D3491ECAB2102A06D1002104E00B
:1012E000491CCAB2082A00D1182101707047C046B3
:1012F00010B5364A1160324908600124204600F0DA
:1013000067F802202146224600F0B4F81E4800216A
:10131000017010BD10B52A48006800F065F8044C53
:10132000207000F05DF8002801D00020207010BD72
:10133000B101002010B5084C2078002807D02348C0
:1013400001680648007800F09DF8002800D010BD24
:101350000020207010BDC046DD010020B00100203B
:1013600080B5022001210A4600F084F806480021D9
:10137000017080BD10B50224012120460A4600F00C
:1013800079F80148047010BD3F0100200848017839
:10139000092905D3491ECAB2102A06D1002104E04A
:1013A000491CCAB2082A00D1182101707047C046F2
:1013B0003D010020054A1160014908607047C046A0
:1013C000B4010020014908607047C046D8010020E0
:1013D00080B52021264A3C4B00F01AF980BDC0465A
:1013E00080B500F005F980BDF0B581B005461E4E10
:1013F00030780024032830D87844007940008744AE
:1014000001260E1500F000F9022826D31748002403
:10141000047017480057002822DA012021E0032039
:101420003070174801784078401814E000F0ECF86C
:1014300002460E4F387882420FD10D492846FEF7FA
:1014400017FF00F02DF9002030703C7805E00320F4
:1014500030700B48007805490870204601B0F0BD97
:1014600002203070F9E7C046B8010020B901002021
:1014700060010020024B9A70597018707047C04686
:101480005C01002070B50D460E4E3178012910D058
:1014900004460020002910D1002C0ED0204600F078
:1014A00095F8094829462246FEF7E2FE012120462A
:1014B00006E000F033F8002800D070BD0021084697
:1014C000317070BDDC01002080010020FFF798F82A
:1014D000FFF7D6F8FCE70000014800687047C046F7
:1014E000A801002080B5FEF725FF401E094948608D
:1014F000002088600868062202430A60086801220A
:1015000002430A60FF20000603490A6882430A601A
:1015100080BDC04610E000E020ED00E010B532488C
:10152000017803293AD8C0467944097949008F44A3
:1015300001181E292D49097800292FD04C490A6825
:1015400004239A430A600A68082313430B601D4969
:1015500000220A701A490A68402313430B600121D4
:101560001BE04349C969184A114215D116E01549D3
:101570000A78484B1B689B5C3D4C2385521C0A70C3
:1015800003210AE03A49CA69120607D5174A1378B7
:101590005B1E13701A0604D00221017013480078F4
:1015A00010BD0A6808239A430A60054A136840245C
:1015B000A34313600A68042313430B600021ECE784
:1015C00014000048C801002080002000002809D035
:1015D00030490968002905D003490978002901D15B
:1015E000024908707047C046D1010020D001002098
:1015F00004480178002903D00021017001207047C0
:1016000000207047D2010020274800787047C0466C
:10161000F0B501246504154E37682F433760144D2B
:101620002E68144F37432F60022804D840B2800040
:1016300012A6305800E01048EE680643EE601248EB
:101640000668C02737433F26B74307600F4801703D
:101650000F4802600F48036020070F4908600F49D8
:101660000860286820432860F0BDC0461C10024076
:101670000044004024850000C2090000204E000004
:10168000C2090000A00100001CE400E0C00100202D
:10169000BC010020CC01002080E200E000E100E07D
:1016A0000148002101707047BA0100203132333403
:1016B000414243440045564C494F4C004B4D495420
:1016C0004C0045564C00546865204D61737465723A
:1016D000206F6620496E6E69766174696F6E005482
:1016E000696E4C65746861780031304C696E6B7955
:1016F00000494F4C696E6B7900000000201700080C
:1017000000000020400000001C01000860170008D5
:1017100040000020A00700003C010008000000007D
:1017200000002801111000FFFF12345600000000D5
:1017300000000000000000000000000000000000A9
:10174000BC160008C6160008F1160008E9160008C5
:10175000DF160008AC160008B5160008C21600080F
:04000005080000C12E
:00000001FF
