:020000040800F2
:10000000F8070020B9010008310500082D05000897
:1000100000000000000000000000000000000000E0
:10002000000000000000000000000000E3010008E4
:100030000000000000000000E50100083505000890
:10004000E9010008E9010008E9010008E9010008E8
:10005000E9010008E9010008E9010008E9010008D8
:10006000E9010008E9010008E90100080D050008A0
:10007000E9010008E9010008E9010008E9010008B8
:10008000E90100080000000000000000E90100088C
:1000900000000000E9010008E9010008E90100088A
:1000A00000000000E9010008E9010008E90100087A
:1000B0004905000800000000E9010008E901000806
:1000C00000F002F800F04CF812A030C808382418EC
:1000D0002D18AC4201D100F043F80FCCA246AB463C
:1000E0000CA730CF2D1B083F3F197C427F1E544484
:1000F0002D090426F441641EAC4201D300F030F80F
:100100000126334200D0FB1A3343984754465D46DC
:10011000DFE70000B0230000D0230000103A02D334
:1001200078C878C1FAD8520701D330C830C101D598
:1001300004680C6070470000704700000023002432
:1001400000250026103A01D378C1FBD8520700D30E
:1001500030C100D50B6070471FB51FBD10B510BD75
:1001600000F0A1F91146FFF7F7FF02F013F800F0D5
:10017000B9F903B4FFF7F2FF03BC00F0BFF90000C8
:1001800070B505460C46164602E00FCC0FC5103E72
:10019000102EFAD2082E02D303CC03C5083E042E3B
:1001A00007D301CC01C5361F03E021782970641CF8
:1001B0006D1C761EF9D270BD0F4880F308880F4879
:1001C0000168090E0E4A914205D10E480E490160A0
:1001D0000E480F4901600F4880470F480047FEE76F
:1001E000FEE7FEE7FEE7FEE7FEE700000B480C49EE
:1001F0000C4A0D4B70470000F80700200400000077
:100200001F00000018100240010000000000014023
:100210000000000045050008C1000008F8010020AA
:10022000F8070020F8030020F803002030B5441C34
:1002300003E00178401C00290DD08107F9D10B4B58
:10024000DD0104C8D11A91432940FAD0001B0A06E7
:1002500003D0C01E30BD001B30BD0A0401D0801E7B
:1002600030BD0902FCD0401E30BD0000010101017B
:10027000F8B5042A2CD3830712D00B78491C0370DD
:10028000401C521E83070BD00B78491C0370401C86
:10029000521E830704D00B78491C0370401C521E69
:1002A0008B079B0F05D0C91ADF002023DE1B08C96E
:1002B0000AE0FFF765FFF8BD1D4608C9FD401C4672
:1002C000B4402C4310C0121F042AF5D2F308C91AF7
:1002D000521EF0D40B78491C0370401C521EEAD405
:1002E0000B78491C0370401C012AE4D40978017082
:1002F000F8BD01E004C0091F0429FBD28B0701D51A
:100300000280801CC90700D00270704700290BD002
:10031000C30702D00270401C491E022904D3830780
:1003200002D50280801C891EE3E70022EEE700224E
:10033000DFE70000002203098B422CD3030A8B4223
:1003400011D300239C464EE003460B433CD40022CD
:1003500043088B4231D303098B421CD3030A8B42DF
:1003600001D394463FE0C3098B4201D3CB01C01AAD
:10037000524183098B4201D38B01C01A5241430978
:100380008B4201D34B01C01A524103098B4201D366
:100390000B01C01A5241C3088B4201D3CB00C01AD3
:1003A000524183088B4201D38B00C01A524143084B
:1003B0008B4201D34B00C01A5241411A00D2014670
:1003C0005241104670475DE0CA0F00D04942031009
:1003D00000D3404253409C46002203098B422DD358
:1003E000030A8B4212D38901FC2212BA030A8B4200
:1003F0000CD3890192118B4208D3890192118B424F
:1004000004D389013AD0921100E08909C3098B42D3
:1004100001D3CB01C01A524183098B4201D38B0116
:10042000C01A524143098B4201D34B01C01A5241B9
:1004300003098B4201D30B01C01A5241C3088B42FE
:1004400001D3CB00C01A524183088B4201D38B00E9
:10045000C01A5241D9D243088B4201D34B00C01A73
:100460005241411A00D201465241104663465B1088
:1004700001D34042002B00D54942704763465B10D0
:1004800000D3404201B50549002802DC491C084060
:1004900000E00846C046C04602BD00BFFFFFFF7F28
:1004A000704770477047754600F024F8AE46050067
:1004B00069465346C008C000854618B020B5FFF70E
:1004C00095FE60BCB64600260027C0C5C0C5C0C5A5
:1004D000C0C5C0C5C0C5C0C5C0C5403D490849006C
:1004E0008D46704710B50446C046C0462046FFF70B
:1004F00040FE10BD00487047500000200149182000
:10050000ABBEFEE72600020070470000044800680A
:100510000449086005204003034908607047C0464D
:10052000000002405801002004000240FFE7FEE7FF
:100530007047000002490868401C08607047C046C8
:10054000BC0100207047000018480168184801608D
:100550000068C007002808D0FFE7164A116801208C
:100560000143116014490870FFE7114800688006D4
:10057000002817D5FFE71148018811480268114883
:100580000378D154007810490978884205DAFFE7EA
:100590000C490878401C087003E00A4900200870E4
:1005A000FFE7FFE703490948086070471C44004023
:1005B000E801002020440040E601002024440040DF
:1005C000D0010020CE010020D40100205F1B1200CA
:1005D00081B001466846017000214056002809D4C8
:1005E000FFE7684601781F200140012088400C4940
:1005F0000860FFE701B0704781B0014668460170AE
:1006000000214056002809D4FFE7684601781F20E2
:1006100001400120884002490860FFE701B07047AF
:1006200080E200E081B0014668460170002140563A
:10063000002809D4FFE7684601781F200140012007
:1006400088400C490860FFE701B0704781B001465F
:100650006846017000214056002809D4FFE768462B
:1006600001781F2001400120884002490860FFE70F
:1006700001B0704700E100E070B582B0024601A809
:100680000270009100214056002816D4FFE7002494
:1006900001A908570322D3431840364A8058095706
:1006A0008C07E50EFF24AC40A043009CA401E4B2FB
:1006B000AC402043194088501AE001A908780F2463
:1006C000204008380322D3431840294A8058002587
:1006D00049578D07EE0EFF25B540A843009DAD019B
:1006E000EDB2B54028432140083919408850FFE752
:1006F00002B070BD70B582B0024601A802700091D0
:1007000000214056002816D4FFE7002401A908570D
:100710000322D3431840174A805809578C07E50E27
:10072000FF24AC40A043009CA401E4B2AC402043B1
:10073000194088501AE001A908780F242040083891
:100740000322D34318400A4A8058002549578D0791
:10075000EE0EFF25B540A843009DAD01EDB2B540BA
:1007600028432140083919408850FFE702B070BD86
:100770001CED00E000E400E0194908680122520283
:10078000104308603B480068C007002806D0FFE718
:1007900038490868022210430860FFE735490868B5
:1007A0000122D20710430860FFE732480068C00FFB
:1007B000002801D0FFE7F8E70A49086801229305FD
:1007C000184308602B49086810430860FFE7264873
:1007D0000068C007002801D1FFE7F8E77047C0466E
:1007E000181002400827014083B001A908701D4875
:1007F00000780090002804D0FFE70098012818D066
:1008000026E001A80078142804DBFFE702A91A48B3
:10081000088021E001A80278012001469140144A95
:100820001160144A11680423194311600D490870BE
:100830000EE00D4800680007002808D5FFE70949C9
:10084000002008700948006802A9088004E0FFE75A
:1008500002A909480880FFE7002102A8405E03B012
:100860007047C04649010020002401404024014057
:100870002824014008240140FFFF00001A490868AD
:1008800003225204104308600920C1060868FF22B1
:100890009200904308600868144A104308601449A5
:1008A0000868FC22104308601249086801221202FD
:1008B00010430860104908680222904308600F49FD
:1008C000086811221202104308600D4908680C22C2
:1008D00090430860086804231843086009490868C1
:1008E000104308607047C04614100240A4FC00008A
:1008F000080000480C000048140000482000004890
:10090000000400480804004880B500F093F87D20FA
:10091000C100044801F054FCFFF7B0FFFFF72CFFC3
:1009200080BDC046006CDC0280B582B001F042FCA4
:100930001C490968401A652831D3FFE701F03AFCE9
:1009400018490860184800780190002804D0FFE793
:100950000198012811D021E001F016FB1349086825
:1009600002225040086001F039F8022804D1FFE764
:100970000D4901200870FFE710E001F08BFA0B49E8
:10098000086802221043086001F028F8022804D009
:10099000FFE7054900200870FFE7FFE7FFE702B027
:1009A00080BDC046B40100204A0100201404004864
:1009B00080B501F0FFFB0E490968401A152815D3D0
:1009C000FFE701F0F7FB0A4908600620FFF70CFF7C
:1009D0000146084801800021405E002805D4FFE759
:1009E0000448008800F058F8FFE7FFE780BDC046E4
:1009F00044010020D601002080B582B00C48007868
:100A00000190002804D0FFE70198012806D00CE0EF
:100A100000F032F806490120087007E000F038F8CD
:100A2000FFF7C6FFFFF780FFFFE7FFE702B080BDDB
:100A30004C0100200E49086801221204104308608E
:100A4000FFE70B4800688003002801D4FFE7F8E7C0
:100A500008490868032210430860FFE7054800685A
:100A60000007800F002801D1FFE7F7E77047C04675
:100A7000341002400410024080B5034803490C4A78
:100A8000012301F0BFF880BD0000002024000020F9
:100A900080B501F031F980BD80B582B001A9088030
:100AA00001980349088001F097F902B080BDC04663
:100AB0004201002080B582B0EA4800780190032806
:100AC00000D9DFE00198810001A040588746C04668
:100AD000E10A0008E30A0008650C0008830C00081E
:100AE000D0E0DF480078000900900B2800D9B1E081
:100AF0000098810001A040588746C0462D0B000891
:100B0000350B0008730B0008B90B0008550C0008E2
:100B1000550C0008550C0008550C0008550C000831
:100B2000090C00081F0C0008390C0008CD490020F2
:100B3000087093E0CA4800780F21084001280AD1C4
:100B4000FFE7C6484278C6494A70807888705049A5
:100B50000320087007E0C1484078C14988704C49BB
:100B600002200870FFE749490020087046490870D4
:100B700074E0BB4800780F21084001280CD1FFE742
:100B8000B6484278B6494A7082788A70C07808714F
:100B90003F490420087009E0B0484278B0498A70A3
:100BA000807808713A4903200870FFE73749002030
:100BB00008703549087051E0A94800780F210840B5
:100BC00001280ED1FFE7A5484278A5494A70C278AE
:100BD0008A708278CA70007908712D4905200870E2
:100BE0000BE09E4882789E498A704278CA70C0782D
:100BF0000871274904200870FFE724490120087084
:100C000021490020087029E0944840789449887070
:100C10001E49002008701C49012008701EE08F4802
:100C200042788F498A7080780871184900200870CE
:100C300015490120087011E08848427888498A7077
:100C40008278CA70C07808711049012008700E4976
:100C5000087003E083490020087013E081490220F6
:100C600008700FE008480078012803D1FFE700F082
:100C70002BFB02E000F070FEFFE77A4903200870CA
:100C800000E0FFE702B080BDB1000020B00000200E
:100C9000B300002080B582B0014601A80170007841
:100CA0000F2817DCFFE7EA480278511C0170E94978
:100CB000895CB84A91700078E7490978884208D180
:100CC000FFE7E34900200870E3490870E349087032
:100CD000FFE7FFE701A80078103800900F2846D8FA
:100CE0000098810001A040588746C0462D0D00089D
:100CF000510D00086D0D00086F0D00086F0D000804
:100D00006F0D00086F0D00086F0D00086F0D0008D3
:100D10006F0D00086F0D00086F0D00086F0D0008C3
:100D20006F0D00086F0D00085D0D0008CB480078BE
:100D3000022804DCFFE797490120887007E0C548D6
:100D4000007894498870C24901200870FFE70FE0DD
:100D5000904900208870C149087009E0BC49002012
:100D60000870BD490870BD49087001E0FFE7FFE762
:100D700088480021C170801C01F036F9022001F082
:100D800077F802B080BDC04680B582B001A9087076
:100D9000C348006809781F221140405C7D49887073
:100DA0000020C870022001F063F802B080BDC04688
:100DB00080B582B0014601A8017000780F2824DCBC
:100DC000FFE774488078E2490A78E2498854E248AB
:100DD00000780F210840012805D1FFE7DD48407861
:100DE000DE490870FFE7DA490878401C0870DB48E4
:100DF00000780978884207D1FFE7D94901200870B7
:100E0000D34900200870FFE7FFE701A80078102809
:100E100018D1FFE75F488178CE4801700178CE484D
:100E2000017000780F210840012807D0FFE7CA4869
:100E300000780F210840C9490870FFE7C449012024
:100E4000087000E0FFE753480021C170C01C01F0AA
:100E5000CBF8012001F00CF802B080BDB5000020F5
:100E60005D0100205401002010B582B0014601A8A8
:100E7000017000780090002804D0FFE70098012856
:100E800005D009E043488078CE49087005E0414824
:100E90008078CB49087000E0FFE73E488178CA4A75
:100EA000126801AB1B781F242340D1540021C1706C
:100EB000C01C01F099F8012000F0DAFF02B010BD6B
:100EC00010B584B003A90020087002A9087001A918
:100ED0000870694608702F480078C00900280BD0B8
:100EE000FFE72C48827852214A4003A90A70C27851
:100EF00003985040087006E02648C07852214840C8
:100F000003A90870FFE70399EE48017001788B0888
:100F10000A465A400B095A4089094A4001210A40B1
:100F200001AB1A7003785A08DC0862405C09624021
:100F30000A40DB095A4002AB1A7002785308104687
:100F4000584008409108D3085940C907890F4018F4
:100F5000110953095940C907490F40185106C90FD3
:100F6000D2095140C90040186946087002984001F2
:100F7000019A1201104309780F22114042180549C5
:100F8000C8783F231A40C02318408018C87004B0A6
:100F900010BDC0466201002080B582B0014601A8A4
:100FA000017000780F2815DCFFE769480278511CB2
:100FB00001702849895CC24A9170007867490978B4
:100FC000884206D1FFE76249002008706449087032
:100FD000FFE7FFE701A800780090102809D0FFE79D
:100FE00000981138022816D3FFE700981F281AD05E
:100FF00021E05B480078022804DCFFE7B0490120CB
:10100000887007E013480078AD4988705049012086
:101010000870FFE710E0AA490020887010490860B6
:101020004F49087008E04A49002008704B49087091
:101030004B49087000E0FFE7A14800214171801C86
:1010400000F0D2FF042000F013FF02B080BDC046C4
:10105000B4000020FB000020B2000020540100205A
:10106000D801002080B582B0014601A80170007847
:101070000F280ADCFFE75448006801A909780F220D
:101080001140405C8E498870FFE78D480021417116
:10109000801C00F0A9FF042000F0EAFE02B080BD31
:1010A0005001002080B582B0014601A8017000788F
:1010B0000F2824DCFFE78248807825490A782549F3
:1010C0008854B14800780F210840012805D1FFE776
:1010D0002048407821490870FFE71D490878401CE6
:1010E00008701E4800780978884207D1FFE71C493C
:1010F00001200870164900200870FFE7FFE701A8EB
:101100000078102818D1FFE76D48817811480170E8
:1011100001789D48017000780F210840012807D010
:10112000FFE7994800780F2108400C490870FFE755
:1011300007490120087000E0FFE761480021417184
:10114000C01C00F051FF032000F092FE02B080BDF1
:10115000B4000020B50000205D010020B200002096
:101160005401002010B582B0014601A8017000783A
:101170000090002804D0FFE70098012805D009E07E
:101180004F4880780F49087005E04D4880780C4939
:10119000087000E011E04A4881780B4A126801AB00
:1011A0001B780F242340D15400214171C01C00F052
:1011B0001BFF032000F05CFEFFE702B010BDC0463D
:1011C000B9010020B80100205001002010B584B002
:1011D00003A90020087002A9087001A908706946D7
:1011E000087037480078C009002813D0FFE734485A
:1011F000827852214A4003A90A70C378039A5A4060
:101200000A700379039A5A400A7042790398504051
:1012100008700EE02A48C27852214A4003A90A7099
:101220000379039A5A400A70427903985040087033
:10123000FFE703992348017001788B080A465A405A
:101240000B095A4089094A4001210A4001AB1A7032
:1012500003785A08DC0862405C0962400A40DB09F6
:101260005A4002AB1A7002785308104658400840A2
:101270009108D3085940C907890F4018110953092B
:101280005940C907490F40185106C90FD2095140AA
:10129000C90040186946087002984001019A12017D
:1012A000104309780F2211404218054948793F231D
:1012B0001A40C02318408018487104B010BDC046C1
:1012C000660100205C01002080B5A4B023A90020A5
:1012D00008802C480078012808D1FFE72A4988783F
:1012E0000002C978401823A9088004E026488078C5
:1012F00023A90880FFE7254821904321FFF715F82F
:101300002199D020087023A800881038229018282E
:1013100000D917E32298810001A040588746C046B3
:101320009113000841140008F1140008A1150008E9
:101330005116000801170008BF1700086F180008B1
:101340004519000845190008451900084519000805
:1013500045190008451900084519000845190008F5
:1013600045190008451900084519000845190008E5
:1013700045190008451900084519000845190008D5
:101380001F190008B00000205D010020FB000020B4
:10139000F5480068027841780902891882781204B9
:1013A000C078000680184018FEF740FF0146EF485D
:1013B000017000780F281EDCFFE7EB480068027818
:1013C00041780902891882781204C07800068018D2
:1013D0004118E64820900278E5481F90401CFEF72F
:1013E00047FF1F9920980278921C027002780878B3
:1013F000104308701FE0DC48006802784178090259
:10140000891882781204C078000680184118D748DD
:101410001E900278D6481D90801CFEF729FF1D996A
:101420001E980278D21C02700A7801231A430A70AF
:1014300000784870FFE7CD48007800F0D3FC82E2E6
:10144000C948006802794179090289188279120431
:10145000C079000680184018FEF7E8FE0146C34830
:10146000017000780F281EDCFFE7BF480068027992
:1014700041790902891882791204C079000680181E
:101480004118BA481C900278B9481B90401CFEF7DE
:10149000EFFE1B991C980278921C02700278087863
:1014A000104308701FE0B0480068027941790902D2
:1014B000891882791204C079000680184118AB4857
:1014C0001A900278AA481990801CFEF7D1FE19994B
:1014D0001A980278D21C02700A7801231A430A7003
:1014E00000784870FFE7A148007800F07BFC2AE212
:1014F0009D480068027A417A09028918827A1204AA
:10150000C07A000680184018FEF790FE0146974802
:10151000017000780F281EDCFFE793480068027A0C
:10152000417A09028918827A1204C07A000680186A
:1015300041188E48189002788D481790401CFEF78D
:1015400097FE179918980278921C02700278087812
:10155000104308701FE084480068027A417A09024B
:101560008918827A1204C07A000680184118F84857
:1015700016900278F5481590801CFEF779FE1599B3
:1015800016980278D21C02700A7801231A430A7056
:1015900000784870FFE7EE48007800F023FCD2E1C5
:1015A000EC480068027B417B09028918827B1204A7
:1015B000C07B000680184018FEF738FE0146E4485C
:1015C000017000780F281EDCFFE7E2480068027B0C
:1015D000417B09028918827B1204C07B00068018B7
:1015E0004118F94814900278F8481390401CFEF70F
:1015F0003FFE139914980278921C027002780878C2
:10160000104308701FE0D3480068027B417B090249
:101610008918827B1204C07B000680184118EA48B2
:1016200012900278E9481190801CFEF721FE119972
:1016300012980278D21C02700A7801231A430A70A9
:1016400000784870FFE7E048007800F0CBFB7AE1D3
:10165000C0480068027C417C09028918827C12041F
:10166000C07C000680184018FEF7E0FD0146D64811
:10167000017000780F281EDCFFE7B6480068027C86
:10168000417C09028918827C1204C07C0006801803
:101690004118CD4810900278CC480F90401CFEF7BE
:1016A000E7FD0F9910980278921C02700278087872
:1016B000104308701FE0A7480068027C417C0902C3
:1016C0008918827C1204C07C000680184118BE482C
:1016D0000E900278BD480D90801CFEF7C9FD0D9953
:1016E0000E980278D21C02700A7801231A430A70FD
:1016F00000784870FFE7B448007800F073FB22E1FF
:1017000094480068027D417D09028918827D120497
:10171000C07D000680184018FEF788FD0146AA48E3
:10172000017000780F2825DCFFE78A480068027DF9
:10173000417D09028918827D1204C07D000680184F
:101740004118A1480C900278A0480B90401CFEF76D
:101750008FFD0B990C980278921C02700278087821
:101760001043087026E0C0466C010020B200002043
:10177000FB00002077480068027D417D090289183E
:10178000827D1204C07D0006801841188E480A90A0
:1017900002788E480990801CFEF76AFD09990A9824
:1017A0000278D21C02700A7801231A430A7000786A
:1017B0004870FFE78448007800F014FBC3E06548F8
:1017C0000068027E417E09028918827E1204C07E72
:1017D000000680184018FEF729FD01467A4801707E
:1017E00000780F281EDCFFE75A480068027E417E21
:1017F00009028918827E1204C07E000680184118F2
:1018000071480890027871480790401CFEF730FD3F
:10181000079908980278921C0270027808781043A1
:1018200008701FE04B480068027E417E090289185B
:10183000827E1204C07E000680184118624806901D
:10184000027862480590801CFEF712FD0599069803
:101850000278D21C02700A7801231A430A700078B9
:101860004870FFE75848007800F0BCFA6BE0F34896
:101870000068027F417F09028918827F1204C07FBD
:10188000000680184018FEF7D1FC01464E48017052
:1018900000780F281EDCFFE7E8480068027F417FE0
:1018A00009028918827F1204C07F0006801841183F
:1018B00045480490027845480390401CFEF7D8FC48
:1018C000039904980278921C0270027808781043F9
:1018D00008701FE0D9480068027F417F090289181B
:1018E000827F1204C07F000680184118364802909B
:1018F000027836480190801CFEF7BAFC01990298E4
:101900000278D21C02700A7801231A430A70007808
:101910004870FFE72C48007800F064FA13E02A488A
:10192000042101700378294A117819431170C449C0
:101930000B685B785370096809789170007800F043
:1019400051FA00E0FFE724B080BDC046FB00002054
:10195000B20000206C01002081B0694600200880A0
:1019600017480078012808D1FFE716498878000257
:10197000C97840186946088004E0124880786946B2
:101980000880FFE7104902200870104952200870B3
:1019900068460088022809D1FFE70D490A780D48FA
:1019A000805C0D4A107000200870FFE70749002096
:1019B000487008784A785040487001B07047C04677
:1019C000B00000205D010020B2000020FB000020DC
:1019D000B3000020B5000020D5010020C4480078E5
:1019E0007047C04680B582B0C2484078800902285E
:1019F00001D0FFE757E0BF480078C00900281FD09A
:101A0000FFE7F44800784006800F0190012804D0D9
:101A1000FFE70198032807D00DE0EE4800781F216A
:101A20000840FFF71FFB0AE0EA4800781F21084042
:101A3000FFF7B2FA03E0E64900200870FFE71EE076
:101A4000E44800784006800F0090012804D0FFE7AA
:101A50000098032807D00DE0DE4800781F210840D9
:101A6000FFF780FB0AE0DB4800781F210840FFF702
:101A700019FB03E0D64900200870FFE7FFE7D848CC
:101A8000007801280CD1FFE7D549002008706C4888
:101A900001680A78CF490A7100684078C870FFE78A
:101AA000FFF794FBFFE702B080BDC04680B582B06F
:101AB000C24840788009002801D0FFE74AE0BF48CB
:101AC0000078C009002821D0FFE7BC480078400614
:101AD000800F0190002808D0FFE70198012805D069
:101AE000FFE70198032808D00EE00EE0B348007825
:101AF0001F210840FFF748F907E0B04800781F2190
:101B00000840FFF7C7F800E0FFE720E0AB480078A7
:101B10004006800F0090002808D0FFE700980128B9
:101B200005D0FFE70098032808D00EE00EE0A34898
:101B300000781F210840FFF797F907E09F480078D9
:101B40001F210840FFF734F900E0FFE7FFE7FFF748
:101B5000B7F9FFE702B080BD80B582B09748407802
:101B60008009002801D0FFE74AE094480078C009C6
:101B7000002821D0FFE7914800784006800F0190AF
:101B8000002808D0FFE70198012805D0FFE7019859
:101B9000032808D00EE00EE0884800781F21084096
:101BA000FFF7F2F807E0854800781F210840FFF7AB
:101BB00071F800E0FFE720E0804800784006800FE1
:101BC0000090002808D0FFE70098012805D0FFE723
:101BD0000098032808D00EE00EE0784800781F2116
:101BE0000840FFF741F907E0744800781F210840DA
:101BF000FFF7DEF800E0FFE7FFE7FFF761F9FFE737
:101C000002B080BD10B584B0039002910192684685
:101C100003706A48811C00F05DF90398064908606A
:101C2000029806490860019805490860009805492E
:101C3000087004B010BDC046500100206C010020A7
:101C4000C00100204101002080B582B05C480078CE
:101C50000190002808D0FFE70198012807D0FFE78E
:101C60000198022806D008E0FFF776FF05E0FFF7AD
:101C70001DFF02E0FFF7B6FEFFE702B080BDC046E1
:101C800080B582B04F48007801905A280CD0FFE709
:101C90000198972808D0FFE7019899280ED0FFE710
:101CA00001989A2814D01DE000F054F94348811C93
:101CB00000F08CF942490020087014E000F054F95B
:101CC0004448811C00F082F93D49022008700AE076
:101CD00000F040F93948811C00F078F938490120BA
:101CE000087000E0FFE737490020087002B080BDAF
:101CF000560100206601002080B584B02D4801689F
:101D0000491C016000682C49884215D1FFE7294928
:101D100000200390086000F01DF92848811C00F0A5
:101D200055F9039826490870264A972111702649CB
:101D3000087026490870FFE72548007802900028BF
:101D400004D0FFE7029801280ED02FE000F0D4F86D
:101D500000F078F8002801D1FFE727E01C490120B6
:101D60000870FFF771FF21E000F0DAF800F08CF85E
:101D700000281AD0FFE7FFF783FF11480078019091
:101D8000022804D3FFE70198022805D009E00B4898
:101D9000801C00F029F904E00E48801C00F024F9B2
:101DA000FFE70B4900200870FFE7FFE7FEF782FE20
:101DB00004B080BDD801002057FA0800620100205D
:101DC00056010020B801002054010020B40000207A
:101DD000550100206601002001490120087070476C
:101DE0004801002083B002A9088001AB00201870D0
:101DF0006A4610801248007818700098401C1080C5
:101E00000298401E0880FFE702AA1088411E118038
:101E100000280CD0FFE769460A880948825C0198CF
:101E2000504001AA10700098401C0880ECE701980F
:101E300069460988024A8918491E087003B070472C
:101E4000FB00002081B035480078002804D1FFE76E
:101E500069460020087006E0304900200870694695
:101E600001200870FFE76846007801B07047C0465F
:101E700081B06946087000983549087033490120DF
:101E8000087001B07047C046304800784142484170
:101E90007047C0464C48007809280DDBFFE74A48E8
:101EA0000178491E01700078102804D1FFE74649E7
:101EB00000200870FFE70CE043480178491C0170DE
:101EC0000078082804D1FFE73F4918200870FFE791
:101ED000FFE7704780B582B00190009101984149B9
:101EE0000860009844490860012000F087F800F07D
:101EF00031F802B080BDC04680B53A48006800F0B5
:101F00008FF80649087000F087F8002804D0FFE732
:101F1000024900200870FFE780BDC046C5010020CF
:101F200080B50A48007800280ED0FFE708480078FE
:101F30003149096800F0EEF8002804D1FFE70349B1
:101F400000200870FFE7FFE780BDC046F1010020D8
:101F5000C401002080B502200122114600F0C8F81B
:101F600008490020087080BD80B582B00220019031
:101F70000122114600F0BCF801980249087002B035
:101F800080BDC0464D0100200F48007809280DDBB8
:101F9000FFE70D480178491E01700078102804D130
:101FA000FFE7094900200870FFE70CE006480178C8
:101FB000491C01700078082804D1FFE70249182065
:101FC0000870FFE7FFE770474B01002082B00190E7
:101FD000009101980349086000980749086002B021
:101FE0007047C046C801002081B0009000980249A7
:101FF000086001B07047C046EC01002080B582B097
:10200000014601A801700078384A614B202100F098
:102010003DF902B080BDC04680B500F01BF980BD1F
:1020200080B584B002902F4800780190032850D8E2
:102030000198810001A040588746C0464D20000805
:102040007D2000088D200008A120000800F01AF96A
:10205000022812DBFFE7254800780006002804D597
:10206000FFE720490120087003E01E4902200870A4
:10207000FFE71D4900200870FFE72AE024480078A8
:102080001949087017490320087022E02049087890
:10209000497840181449087012490320087018E064
:1020A00000F0F0F810490978884211D1FFE7029852
:1020B0000D4900910A780D49FEF7DAF800F0B2F9FF
:1020C0000098084A00211170007803A9087004E004
:1020D000FFE703A900200870FFE703A8007804B019
:1020E00080BDC046CC010020CD010020730100203E
:1020F00083B002AB187001A80170684602700298A4
:1021000003490870019848700098887003B07047C0
:102110007001002080B586B005AA1070049103A953
:1021200000200870194800780290002804D0FFE7CA
:102130000298012818D025E005A80078012812DBB4
:10214000FFE705A80190007800F072F90198049962
:1021500002780F48FEF78CF8059803A908700B4920
:1021600001200870FFE70DE000F0FCF8014603A82D
:1021700001700078002804D1FFE7044900200870AE
:10218000FFE7FFE703A8007806B080BDF00100205C
:102190009301002080B582B000200190FEF7B4FBCF
:1021A000034800688047FFE7FEF726FCFCE7C046CF
:1021B00044000020014800687047C046BC01002070
:1021C00080B584B00390029103980299FEF7B2F8AB
:1021D000401E0D4908600D48002101600C4A10683E
:1021E0000623184310601068012318431060C84389
:1021F0000190FEF741FA0198FEF7EAF90198FEF71F
:1022000011FA04B080BDC04614E000E018E000E020
:1022100010E000E0704781B06946087001B0704777
:102220000B49086802229043086047490868042265
:10223000104308607047C046434908680422904331
:102240000860034908680222104308607047C046CE
:102250001400004881B00A480078002804D1FFE744
:1022600069460020087006E00549002008706946AC
:1022700001200870FFE76846007801B07047C0464B
:10228000E6010020694800787047C04610B586B066
:10229000044605A8047004AC217003920293284AF6
:1022A000116801235C0421431160264A1168194317
:1022B0001160254A1168254B19431160007801907F
:1022C000002808D0FFE7019801280AD0FFE701980D
:1022D00002280CD012E01E4908681F4A104308600B
:1022E00012E01B4908681B4A104308600CE01849BB
:1022F00008680D2252011043086005E0144908687F
:10230000144A10430860FFE70498144908700398C2
:10231000134908600298544908601C20009003216A
:10232000FEF7E8F90098FEF767F90098FEF78EF9D6
:102330000549086801221043086006B010BDC04678
:102340001C10024014100240004400402C95000074
:102350000C440040C2090000204E0000D4010020BF
:10236000D001002080B582B0404800780190032859
:102370004ED80198810001A0405887468D2300085F
:10238000AB230008C1230008DD230008384800788B
:10239000012809DBFFE7214900200870FFF74CFF07
:1023A000324901200870FFE732E01B480068000650
:1023B000002804D5FFE72D4902200870FFE727E039
:1023C0002948006815490A78805C154A1080087809
:1023D000401C087025490320087019E00E48006869
:1023E0004006002813D5FFE721480178491E0170F7
:1023F0000078002806D1FFE7FFF712FF1B490020F5
:10240000087003E0194902200870FFE7FFE7FFE7C3
:102410001748007802B080BD1C440040DC01002059
:10242000284400400149002008707047CE01002078
:1024300081B0694608700C480068002801D1FFE7A8
:102440000FE068460078002801D1FFE709E007485F
:102450000078002801D0FFE703E0009804490870E5
:10246000FFE701B07047C046E0010020E501002011
:10247000E4010020494F4C696E6B794630343200DC
:10248000463034325F3633363200313233344142F3
:102490004344004B4D49544C00546865204D6173D2
:1024A000746572206F6620496E6E69766174696F1B
:1024B0006E0054696E4C65746861780031304C6907
:1024C0006E6B7900E8240008000000205000000036
:1024D0001C0100083825000850000020A807000053
:1024E0003C0100080000000000002801111000FF5E
:1024F000FF12345600000000000102030405060725
:1025000008090A0B0C0D0E0F1000000093240008A0
:102510009924000874240008BC240008B224000890
:102520008A240008802400087B2400081522000863
:08253000172200080000000062
:04000005080000C12E
:00000001FF
